{
  "_format": "hh-sol-artifact-1",
  "contractName": "NFTHACK",
  "sourceName": "contracts/nft-hack.sol",
  "abi": [
    {
      "inputs": [],
      "stateMutability": "nonpayable",
      "type": "constructor"
    },
    {
      "anonymous": false,
      "inputs": [
        {
          "indexed": false,
          "internalType": "address",
          "name": "host",
          "type": "address"
        },
        {
          "indexed": false,
          "internalType": "address",
          "name": "requiredCollection",
          "type": "address"
        },
        {
          "indexed": false,
          "internalType": "string",
          "name": "url",
          "type": "string"
        }
      ],
      "name": "StreamCreated",
      "type": "event"
    },
    {
      "inputs": [
        {
          "internalType": "address",
          "name": "requiredCollection",
          "type": "address"
        },
        {
          "internalType": "string",
          "name": "url",
          "type": "string"
        }
      ],
      "name": "createStream",
      "outputs": [
        {
          "internalType": "bool",
          "name": "",
          "type": "bool"
        }
      ],
      "stateMutability": "nonpayable",
      "type": "function"
    }
  ],
  "bytecode": "0x608060405234801561001057600080fd5b50336000806101000a81548173ffffffffffffffffffffffffffffffffffffffff021916908373ffffffffffffffffffffffffffffffffffffffff160217905550610581806100606000396000f3fe608060405234801561001057600080fd5b506004361061002b5760003560e01c8063098c602b14610030575b600080fd5b61004a60048036038101906100459190610366565b610060565b6040516100579190610449565b60405180910390f35b60008060405180606001604052803373ffffffffffffffffffffffffffffffffffffffff1681526020018673ffffffffffffffffffffffffffffffffffffffff16815260200185858080601f016020809104026020016040519081016040528093929190818152602001838380828437600081840152601f19601f82011690508083019250505050505050815250905080600160008773ffffffffffffffffffffffffffffffffffffffff1673ffffffffffffffffffffffffffffffffffffffff16815260200190815260200160002060003373ffffffffffffffffffffffffffffffffffffffff1673ffffffffffffffffffffffffffffffffffffffff16815260200190815260200160002060008201518160000160006101000a81548173ffffffffffffffffffffffffffffffffffffffff021916908373ffffffffffffffffffffffffffffffffffffffff16021790555060208201518160010160006101000a81548173ffffffffffffffffffffffffffffffffffffffff021916908373ffffffffffffffffffffffffffffffffffffffff1602179055506040820151816002019080519060200190610217929190610264565b509050507f5b2c23b4258756a4ac37c2896c1cc3440154a7c34431cec1c595430a6a5815c0338686866040516102509493929190610409565b60405180910390a160019150509392505050565b828054610270906104c2565b90600052602060002090601f01602090048101928261029257600085556102d9565b82601f106102ab57805160ff19168380011785556102d9565b828001600101855582156102d9579182015b828111156102d85782518255916020019190600101906102bd565b5b5090506102e691906102ea565b5090565b5b808211156103035760008160009055506001016102eb565b5090565b60008135905061031681610534565b92915050565b60008083601f84011261032e57600080fd5b8235905067ffffffffffffffff81111561034757600080fd5b60208301915083600182028301111561035f57600080fd5b9250929050565b60008060006040848603121561037b57600080fd5b600061038986828701610307565b935050602084013567ffffffffffffffff8111156103a657600080fd5b6103b28682870161031c565b92509250509250925092565b6103c781610475565b82525050565b6103d681610487565b82525050565b60006103e88385610464565b93506103f58385846104b3565b6103fe83610523565b840190509392505050565b600060608201905061041e60008301876103be565b61042b60208301866103be565b818103604083015261043e8184866103dc565b905095945050505050565b600060208201905061045e60008301846103cd565b92915050565b600082825260208201905092915050565b600061048082610493565b9050919050565b60008115159050919050565b600073ffffffffffffffffffffffffffffffffffffffff82169050919050565b82818337600083830152505050565b600060028204905060018216806104da57607f821691505b602082108114156104ee576104ed6104f4565b5b50919050565b7f4e487b7100000000000000000000000000000000000000000000000000000000600052602260045260246000fd5b6000601f19601f8301169050919050565b61053d81610475565b811461054857600080fd5b5056fea26469706673582212208beb8f9a4bb69becde46b021f42f04fc3f48750c2c9e25a23e96a9d583026cc164736f6c63430008030033",
  "linkReferences": {},
  "deployedLinkReferences": {}
}