{
  "_format": "hh-sol-artifact-1",
  "contractName": "NFTHACK",
  "sourceName": "contracts/nft-hack.sol",
  "abi": [
    {
      "inputs": [],
      "stateMutability": "nonpayable",
      "type": "constructor"
    },
    {
      "anonymous": false,
      "inputs": [
        {
          "indexed": false,
          "internalType": "address",
          "name": "host",
          "type": "address"
        },
        {
          "indexed": false,
          "internalType": "address",
          "name": "requiredCollection",
          "type": "address"
        },
        {
          "indexed": false,
          "internalType": "string",
          "name": "url",
          "type": "string"
        }
      ],
      "name": "StreamCreated",
      "type": "event"
    },
    {
      "inputs": [
        {
          "internalType": "address",
          "name": "requiredCollection",
          "type": "address"
        },
        {
          "internalType": "string",
          "name": "url",
          "type": "string"
        }
      ],
      "name": "createStream",
      "outputs": [
        {
          "internalType": "bool",
          "name": "",
          "type": "bool"
        }
      ],
      "stateMutability": "nonpayable",
      "type": "function"
    },
    {
      "inputs": [
        {
          "internalType": "uint256",
          "name": "",
          "type": "uint256"
        }
      ],
      "name": "streamArray",
      "outputs": [
        {
          "internalType": "address",
          "name": "host",
          "type": "address"
        },
        {
          "internalType": "address",
          "name": "requiredCollection",
          "type": "address"
        },
        {
          "internalType": "string",
          "name": "url",
          "type": "string"
        }
      ],
      "stateMutability": "view",
      "type": "function"
    },
    {
      "inputs": [
        {
          "internalType": "address",
          "name": "",
          "type": "address"
        },
        {
          "internalType": "address",
          "name": "",
          "type": "address"
        }
      ],
      "name": "streams",
      "outputs": [
        {
          "internalType": "address",
          "name": "host",
          "type": "address"
        },
        {
          "internalType": "address",
          "name": "requiredCollection",
          "type": "address"
        },
        {
          "internalType": "string",
          "name": "url",
          "type": "string"
        }
      ],
      "stateMutability": "view",
      "type": "function"
    }
  ],
  "bytecode": "0x608060405234801561001057600080fd5b50336000806101000a81548173ffffffffffffffffffffffffffffffffffffffff021916908373ffffffffffffffffffffffffffffffffffffffff160217905550610a25806100606000396000f3fe608060405234801561001057600080fd5b50600436106100415760003560e01c806306754ba514610046578063098c602b14610078578063d93f97e5146100a8575b600080fd5b610060600480360381019061005b91906106cf565b6100da565b60405161006f93929190610850565b60405180910390f35b610092600480360381019061008d919061070b565b6101d9565b60405161009f919061088e565b60405180910390f35b6100c260048036038101906100bd9190610763565b6104b6565b6040516100d193929190610850565b60405180910390f35b6001602052816000526040600020602052806000526040600020600091509150508060000160009054906101000a900473ffffffffffffffffffffffffffffffffffffffff16908060010160009054906101000a900473ffffffffffffffffffffffffffffffffffffffff16908060020180546101569061094f565b80601f01602080910402602001604051908101604052809291908181526020018280546101829061094f565b80156101cf5780601f106101a4576101008083540402835291602001916101cf565b820191906000526020600020905b8154815290600101906020018083116101b257829003601f168201915b5050505050905083565b60008060405180606001604052803373ffffffffffffffffffffffffffffffffffffffff1681526020018673ffffffffffffffffffffffffffffffffffffffff16815260200185858080601f016020809104026020016040519081016040528093929190818152602001838380828437600081840152601f19601f82011690508083019250505050505050815250905080600160008773ffffffffffffffffffffffffffffffffffffffff1673ffffffffffffffffffffffffffffffffffffffff16815260200190815260200160002060003373ffffffffffffffffffffffffffffffffffffffff1673ffffffffffffffffffffffffffffffffffffffff16815260200190815260200160002060008201518160000160006101000a81548173ffffffffffffffffffffffffffffffffffffffff021916908373ffffffffffffffffffffffffffffffffffffffff16021790555060208201518160010160006101000a81548173ffffffffffffffffffffffffffffffffffffffff021916908373ffffffffffffffffffffffffffffffffffffffff16021790555060408201518160020190805190602001906103909291906105b8565b50905050600281908060018154018082558091505060019003906000526020600020906003020160009091909190915060008201518160000160006101000a81548173ffffffffffffffffffffffffffffffffffffffff021916908373ffffffffffffffffffffffffffffffffffffffff16021790555060208201518160010160006101000a81548173ffffffffffffffffffffffffffffffffffffffff021916908373ffffffffffffffffffffffffffffffffffffffff160217905550604082015181600201908051906020019061046a9291906105b8565b5050507f5b2c23b4258756a4ac37c2896c1cc3440154a7c34431cec1c595430a6a5815c0338686866040516104a29493929190610810565b60405180910390a160019150509392505050565b600281815481106104c657600080fd5b90600052602060002090600302016000915090508060000160009054906101000a900473ffffffffffffffffffffffffffffffffffffffff16908060010160009054906101000a900473ffffffffffffffffffffffffffffffffffffffff16908060020180546105359061094f565b80601f01602080910402602001604051908101604052809291908181526020018280546105619061094f565b80156105ae5780601f10610583576101008083540402835291602001916105ae565b820191906000526020600020905b81548152906001019060200180831161059157829003601f168201915b5050505050905083565b8280546105c49061094f565b90600052602060002090601f0160209004810192826105e6576000855561062d565b82601f106105ff57805160ff191683800117855561062d565b8280016001018555821561062d579182015b8281111561062c578251825591602001919060010190610611565b5b50905061063a919061063e565b5090565b5b8082111561065757600081600090555060010161063f565b5090565b60008135905061066a816109c1565b92915050565b60008083601f84011261068257600080fd5b8235905067ffffffffffffffff81111561069b57600080fd5b6020830191508360018202830111156106b357600080fd5b9250929050565b6000813590506106c9816109d8565b92915050565b600080604083850312156106e257600080fd5b60006106f08582860161065b565b92505060206107018582860161065b565b9150509250929050565b60008060006040848603121561072057600080fd5b600061072e8682870161065b565b935050602084013567ffffffffffffffff81111561074b57600080fd5b61075786828701610670565b92509250509250925092565b60006020828403121561077557600080fd5b6000610783848285016106ba565b91505092915050565b610795816108c5565b82525050565b6107a4816108d7565b82525050565b60006107b683856108b4565b93506107c383858461090d565b6107cc836109b0565b840190509392505050565b60006107e2826108a9565b6107ec81856108b4565b93506107fc81856020860161091c565b610805816109b0565b840191505092915050565b6000606082019050610825600083018761078c565b610832602083018661078c565b81810360408301526108458184866107aa565b905095945050505050565b6000606082019050610865600083018661078c565b610872602083018561078c565b818103604083015261088481846107d7565b9050949350505050565b60006020820190506108a3600083018461079b565b92915050565b600081519050919050565b600082825260208201905092915050565b60006108d0826108e3565b9050919050565b60008115159050919050565b600073ffffffffffffffffffffffffffffffffffffffff82169050919050565b6000819050919050565b82818337600083830152505050565b60005b8381101561093a57808201518184015260208101905061091f565b83811115610949576000848401525b50505050565b6000600282049050600182168061096757607f821691505b6020821081141561097b5761097a610981565b5b50919050565b7f4e487b7100000000000000000000000000000000000000000000000000000000600052602260045260246000fd5b6000601f19601f8301169050919050565b6109ca816108c5565b81146109d557600080fd5b50565b6109e181610903565b81146109ec57600080fd5b5056fea264697066735822122048d6545b1d26832a859eb240b471aba16d41539260c45fe6c9ebd42a9314a5b464736f6c63430008030033",
  "linkReferences": {},
  "deployedLinkReferences": {}
}