{
  "_format": "hh-sol-artifact-1",
  "contractName": "NFTHACK",
  "sourceName": "contracts/nft-hack.sol",
  "abi": [
    {
      "inputs": [],
      "stateMutability": "nonpayable",
      "type": "constructor"
    },
    {
      "anonymous": false,
      "inputs": [
        {
          "indexed": false,
          "internalType": "address",
          "name": "host",
          "type": "address"
        },
        {
          "indexed": false,
          "internalType": "address",
          "name": "requiredCollection",
          "type": "address"
        },
        {
          "indexed": false,
          "internalType": "string",
          "name": "url",
          "type": "string"
        }
      ],
      "name": "StreamCreated",
      "type": "event"
    },
    {
      "inputs": [
        {
          "internalType": "address",
          "name": "requiredCollection",
          "type": "address"
        },
        {
          "internalType": "string",
          "name": "url",
          "type": "string"
        }
      ],
      "name": "createStream",
      "outputs": [
        {
          "internalType": "bool",
          "name": "",
          "type": "bool"
        }
      ],
      "stateMutability": "nonpayable",
      "type": "function"
    },
    {
      "inputs": [],
      "name": "getStreamArray",
      "outputs": [
        {
          "components": [
            {
              "internalType": "address",
              "name": "host",
              "type": "address"
            },
            {
              "internalType": "address",
              "name": "requiredCollection",
              "type": "address"
            },
            {
              "internalType": "string",
              "name": "url",
              "type": "string"
            }
          ],
          "internalType": "struct NFTHACK.Stream[]",
          "name": "",
          "type": "tuple[]"
        }
      ],
      "stateMutability": "view",
      "type": "function"
    },
    {
      "inputs": [
        {
          "internalType": "uint256",
          "name": "",
          "type": "uint256"
        }
      ],
      "name": "streamArray",
      "outputs": [
        {
          "internalType": "address",
          "name": "host",
          "type": "address"
        },
        {
          "internalType": "address",
          "name": "requiredCollection",
          "type": "address"
        },
        {
          "internalType": "string",
          "name": "url",
          "type": "string"
        }
      ],
      "stateMutability": "view",
      "type": "function"
    },
    {
      "inputs": [
        {
          "internalType": "address",
          "name": "",
          "type": "address"
        },
        {
          "internalType": "address",
          "name": "",
          "type": "address"
        }
      ],
      "name": "streams",
      "outputs": [
        {
          "internalType": "address",
          "name": "host",
          "type": "address"
        },
        {
          "internalType": "address",
          "name": "requiredCollection",
          "type": "address"
        },
        {
          "internalType": "string",
          "name": "url",
          "type": "string"
        }
      ],
      "stateMutability": "view",
      "type": "function"
    }
  ],
  "bytecode": "0x608060405234801561001057600080fd5b50336000806101000a81548173ffffffffffffffffffffffffffffffffffffffff021916908373ffffffffffffffffffffffffffffffffffffffff160217905550610d78806100606000396000f3fe608060405234801561001057600080fd5b506004361061004c5760003560e01c806306754ba514610051578063098c602b1461008357806361fd14d1146100b3578063d93f97e5146100d1575b600080fd5b61006b60048036038101906100669190610895565b610103565b60405161007a93929190610b37565b60405180910390f35b61009d600480360381019061009891906108d1565b610202565b6040516100aa9190610b97565b60405180910390f35b6100bb6104df565b6040516100c89190610b75565b60405180910390f35b6100eb60048036038101906100e69190610929565b61067c565b6040516100fa93929190610b37565b60405180910390f35b6001602052816000526040600020602052806000526040600020600091509150508060000160009054906101000a900473ffffffffffffffffffffffffffffffffffffffff16908060010160009054906101000a900473ffffffffffffffffffffffffffffffffffffffff169080600201805461017f90610ca2565b80601f01602080910402602001604051908101604052809291908181526020018280546101ab90610ca2565b80156101f85780601f106101cd576101008083540402835291602001916101f8565b820191906000526020600020905b8154815290600101906020018083116101db57829003601f168201915b5050505050905083565b60008060405180606001604052803373ffffffffffffffffffffffffffffffffffffffff1681526020018673ffffffffffffffffffffffffffffffffffffffff16815260200185858080601f016020809104026020016040519081016040528093929190818152602001838380828437600081840152601f19601f82011690508083019250505050505050815250905080600160008773ffffffffffffffffffffffffffffffffffffffff1673ffffffffffffffffffffffffffffffffffffffff16815260200190815260200160002060003373ffffffffffffffffffffffffffffffffffffffff1673ffffffffffffffffffffffffffffffffffffffff16815260200190815260200160002060008201518160000160006101000a81548173ffffffffffffffffffffffffffffffffffffffff021916908373ffffffffffffffffffffffffffffffffffffffff16021790555060208201518160010160006101000a81548173ffffffffffffffffffffffffffffffffffffffff021916908373ffffffffffffffffffffffffffffffffffffffff16021790555060408201518160020190805190602001906103b992919061077e565b50905050600281908060018154018082558091505060019003906000526020600020906003020160009091909190915060008201518160000160006101000a81548173ffffffffffffffffffffffffffffffffffffffff021916908373ffffffffffffffffffffffffffffffffffffffff16021790555060208201518160010160006101000a81548173ffffffffffffffffffffffffffffffffffffffff021916908373ffffffffffffffffffffffffffffffffffffffff160217905550604082015181600201908051906020019061049392919061077e565b5050507f5b2c23b4258756a4ac37c2896c1cc3440154a7c34431cec1c595430a6a5815c0338686866040516104cb9493929190610af7565b60405180910390a160019150509392505050565b60606002805480602002602001604051908101604052809291908181526020016000905b8282101561067357838290600052602060002090600302016040518060600160405290816000820160009054906101000a900473ffffffffffffffffffffffffffffffffffffffff1673ffffffffffffffffffffffffffffffffffffffff1673ffffffffffffffffffffffffffffffffffffffff1681526020016001820160009054906101000a900473ffffffffffffffffffffffffffffffffffffffff1673ffffffffffffffffffffffffffffffffffffffff1673ffffffffffffffffffffffffffffffffffffffff1681526020016002820180546105e290610ca2565b80601f016020809104026020016040519081016040528092919081815260200182805461060e90610ca2565b801561065b5780601f106106305761010080835404028352916020019161065b565b820191906000526020600020905b81548152906001019060200180831161063e57829003601f168201915b50505050508152505081526020019060010190610503565b50505050905090565b6002818154811061068c57600080fd5b90600052602060002090600302016000915090508060000160009054906101000a900473ffffffffffffffffffffffffffffffffffffffff16908060010160009054906101000a900473ffffffffffffffffffffffffffffffffffffffff16908060020180546106fb90610ca2565b80601f016020809104026020016040519081016040528092919081815260200182805461072790610ca2565b80156107745780601f1061074957610100808354040283529160200191610774565b820191906000526020600020905b81548152906001019060200180831161075757829003601f168201915b5050505050905083565b82805461078a90610ca2565b90600052602060002090601f0160209004810192826107ac57600085556107f3565b82601f106107c557805160ff19168380011785556107f3565b828001600101855582156107f3579182015b828111156107f25782518255916020019190600101906107d7565b5b5090506108009190610804565b5090565b5b8082111561081d576000816000905550600101610805565b5090565b60008135905061083081610d14565b92915050565b60008083601f84011261084857600080fd5b8235905067ffffffffffffffff81111561086157600080fd5b60208301915083600182028301111561087957600080fd5b9250929050565b60008135905061088f81610d2b565b92915050565b600080604083850312156108a857600080fd5b60006108b685828601610821565b92505060206108c785828601610821565b9150509250929050565b6000806000604084860312156108e657600080fd5b60006108f486828701610821565b935050602084013567ffffffffffffffff81111561091157600080fd5b61091d86828701610836565b92509250509250925092565b60006020828403121561093b57600080fd5b600061094984828501610880565b91505092915050565b600061095e8383610aa7565b905092915050565b61096f81610c18565b82525050565b61097e81610c18565b82525050565b600061098f82610bc2565b6109998185610be5565b9350836020820285016109ab85610bb2565b8060005b858110156109e757848403895281516109c88582610952565b94506109d383610bd8565b925060208a019950506001810190506109af565b50829750879550505050505092915050565b610a0281610c2a565b82525050565b6000610a148385610c07565b9350610a21838584610c60565b610a2a83610d03565b840190509392505050565b6000610a4082610bcd565b610a4a8185610bf6565b9350610a5a818560208601610c6f565b610a6381610d03565b840191505092915050565b6000610a7982610bcd565b610a838185610c07565b9350610a93818560208601610c6f565b610a9c81610d03565b840191505092915050565b6000606083016000830151610abf6000860182610966565b506020830151610ad26020860182610966565b5060408301518482036040860152610aea8282610a35565b9150508091505092915050565b6000606082019050610b0c6000830187610975565b610b196020830186610975565b8181036040830152610b2c818486610a08565b905095945050505050565b6000606082019050610b4c6000830186610975565b610b596020830185610975565b8181036040830152610b6b8184610a6e565b9050949350505050565b60006020820190508181036000830152610b8f8184610984565b905092915050565b6000602082019050610bac60008301846109f9565b92915050565b6000819050602082019050919050565b600081519050919050565b600081519050919050565b6000602082019050919050565b600082825260208201905092915050565b600082825260208201905092915050565b600082825260208201905092915050565b6000610c2382610c36565b9050919050565b60008115159050919050565b600073ffffffffffffffffffffffffffffffffffffffff82169050919050565b6000819050919050565b82818337600083830152505050565b60005b83811015610c8d578082015181840152602081019050610c72565b83811115610c9c576000848401525b50505050565b60006002820490506001821680610cba57607f821691505b60208210811415610cce57610ccd610cd4565b5b50919050565b7f4e487b7100000000000000000000000000000000000000000000000000000000600052602260045260246000fd5b6000601f19601f8301169050919050565b610d1d81610c18565b8114610d2857600080fd5b50565b610d3481610c56565b8114610d3f57600080fd5b5056fea2646970667358221220cc1e8732c121e5ddfc8b791f522f144a9e481748589ef5ededef292aba52874664736f6c63430008030033",
  "linkReferences": {},
  "deployedLinkReferences": {}
}